:100000000C945D000C9485000C9485000C94850084
:100010000C9485000C9485000C9485000C9485004C
:100020000C9485000C9485000C9485000C9485003C
:100030000C9485000C9485000C9485000C9485002C
:100040000C9455010C9485000C9485000C9485004B
:100050000C9485000C9485000C9485000C9485000C
:100060000C9485000C94850000000008000201003B
:100070000003040700000000000000000000000072
:10008000250028002B0000000000240027002A0083
:10009000040404040404040402020202020203032E
:1000A0000303030301020408102040800102040836
:1000B0001020010204081020190211241FBECFEFE6
:1000C000D8E0DEBFCDBF11E0A0E0B1E0E8EEF6E0A1
:1000D00002C005900D92AE30B107D9F721E0AEE035
:1000E000B1E001C01D92A732B207E1F710E0CDE503
:1000F000D0E004C02197FE010E944B02CC35D1070D
:10010000C9F70E949F010C9472030C94000090E0C8
:10011000FC01EC55FF4F2491FC01E057FF4F849107
:10012000882399F090E0880F991FFC01EA57FF4F50
:10013000A591B491FC01E458FF4F859194918FB73C
:10014000F894EC91E22BEC938FBF089590E0FC01C2
:10015000E859FF4F2491FC01EC55FF4F3491FC010D
:10016000E057FF4FE491EE2309F43CC0222339F11C
:10017000233091F038F42130A9F0223001F584B514
:100180008F7D12C0273091F02830A1F02430B9F4CF
:10019000809180008F7D03C0809180008F77809355
:1001A00080000DC084B58F7784BD09C08091B000F8
:1001B0008F7703C08091B0008F7D8093B000F0E016
:1001C000EE0FFF1FE458FF4FA591B4919FB7F8942D
:1001D000611104C08C913095382302C0EC913E2B04
:1001E0003C939FBF08953FB7F89480911F01909171
:1001F0002001A0912101B091220126B5A89B05C044
:100200002F3F19F00196A11DB11D3FBFBA2FA92F95
:10021000982F8827820F911DA11DB11DBC01CD0112
:1002200042E0660F771F881F991F4A95D1F70895FE
:100230008F929F92AF92BF92CF92DF92EF92FF92F6
:100240006B017C010E94F3004B015C01C114D104DD
:10025000E104F104F1F00E94F300DC01CB01881904
:100260009909AA09BB09883E9340A105B10570F31D
:1002700021E0C21AD108E108F10888EE880E83E077
:10028000981EA11CB11CC114D104E104F10419F79A
:10029000DDCFFF90EF90DF90CF90BF90AF909F9019
:1002A0008F90089508950C94E9021F920F920FB653
:1002B0000F9211242F933F938F939F93AF93BF93EC
:1002C00080911B0190911C01A0911D01B0911E0114
:1002D00030911A0123E0230F2D3720F40196A11D40
:1002E000B11D05C026E8230F0296A11DB11D209364
:1002F0001A0180931B0190931C01A0931D01B093E0
:100300001E0180911F0190912001A0912101B091C7
:1003100022010196A11DB11D80931F019093200120
:10032000A0932101B0932201BF91AF919F918F9132
:100330003F912F910F900FBE0F901F9018957894BA
:1003400084B5826084BD84B5816084BD85B58260DA
:1003500085BD85B5816085BD80916E00816080938B
:100360006E001092810080918100826080938100F4
:100370008091810081608093810080918000816004
:10038000809380008091B10084608093B10080915F
:10039000B00081608093B00080917A008460809387
:1003A0007A0080917A00826080937A0080917A004E
:1003B000816080937A0080917A00806880937A00CF
:1003C0001092C100C0E0D0E061E0809118010E946D
:1003D000A60060E177E280E090E00E94180160E012
:1003E000809118010E94A60061E0809114010E9492
:1003F000A60068E873E180E090E00E94180160E0E8
:10040000809114010E94A60061E0809110010E9479
:10041000A60060E177E280E090E00E94180160E0D1
:10042000809110010E94A600209771F20E940000A6
:10043000CBCF0F931F93CF93DF9306E111E0CAE078
:10044000D1E0F801D183C08383E00E94870083E07C
:1004500090E0F801938382830EE011E0F801D183EC
:10046000C08385E00E94870085E090E0F8019383D7
:10047000828302E111E0F801D183C08384E00E940D
:10048000870084E090E0F80193838283DF91CF912D
:100490001F910F910895EE0FFF1F0590F491E02D2D
:1004A00009940F931F93CF93DF938230910510F43B
:1004B00082E090E0E0912501F091260120E030E01B
:1004C000A0E0B0E0309719F14081518102811381A1
:1004D00048175907C8F08417950769F4109731F049
:1004E00012960C93129713961C9327C00093250124
:1004F0001093260122C02115310519F04217530728
:1005000018F49A01BD01EF01DF01F801DBCF2115DD
:100510003105F9F0281B390B2430310580F48A812C
:100520009B816115710521F0FB019383828304C0D7
:100530009093260180932501FE01329644C0FE016E
:10054000E20FF31F8193919322503109398328835D
:100550003AC02091230130912401232B41F42091B2
:100560000201309103013093240120932301209153
:100570000001309101012115310541F42DB73EB73D
:100580004091040150910501241B350BE09123019A
:10059000F0912401E217F307A0F42E1B3F0B28175C
:1005A000390778F0AC014E5F5F4F2417350748F0EC
:1005B0004E0F5F1F50932401409323018193919329
:1005C00002C0E0E0F0E0CF01DF91CF911F910F91E9
:1005D0000895CF93DF93009709F481C0FC0132970F
:1005E00013821282A0912501B0912601109781F407
:1005F00020813181820F931F2091230130912401AA
:100600002817390751F5F0932401E093230167C0BF
:10061000ED0120E030E0CE17DF0740F44A815B8136
:100620009E0141155105F1F0EA01F5CFD383C28354
:1006300040815181840F951FC817D90759F48881CB
:100640009981840F951F0296918380838A819B8173
:10065000938382832115310529F4F0932601E093D9
:1006600025013DC0E901FB83EA8349915991C40FFB
:10067000D51FEC17FD0761F480819181840F951FD0
:100680000296E90199838883828193819B838A837F
:10069000E0E0F0E012968D919C911397009719F08D
:1006A000FD01DC01F7CF8D919C9111979D012E5F8B
:1006B0003F4F820F931F209123013091240128176F
:1006C000390769F4309729F4109226011092250118
:1006D00002C013821282B0932401A0932301DF9100
:0806E000CF910895F894FFCFBB
:0E06E8000000270180000000000052015301B5
:00000001FF
